:100000000C9436000C945E000C945E000C945E0020
:100010000C945E000C945E000C945E000C945E00E8
:100020000C945E000C945E000C945E000C945E00D8
:100030000C945E000C945E000C945E000C945E00C8
:100040000C9422020C945E000C9492020C946C02AC
:100050000C945E000C945E000C945E000C945E00A8
:100060000C945E000C945E00C402BB0411241FBEFD
:10007000CFEFD8E0DEBFCDBF22E0AEE8B1E001C0F7
:100080001D92A636B207E1F711E0A0E0B1E0ECE77F
:10009000F3E102C005900D92AE38B107D9F710E038
:1000A000C5E3D0E004C02197FE010E94FE04C433E2
:1000B000D107C9F70E940E030C94B1090C940000FB
:1000C0003FB7F8948091B5019091B601A091B70126
:1000D000B091B80126B5A89B05C02F3F19F0019635
:1000E000A11DB11D3FBFBA2FA92F982F8827820FBE
:1000F000911DA11DB11DBC01CD0142E0660F771F0E
:10010000881F991F4A95D1F70895CF92DF92EF92F9
:10011000FF920F931F93CF93DF936C017A018B01B2
:10012000C0E0D0E0CE15DF0589F0D8016D918D01DA
:10013000D601ED91FC910190F081E02DC601099569
:10014000892B11F47E0102C02196ECCFC701DF910B
:10015000CF911F910F91FF90EF90DF90CF90089576
:10016000089580E090E00895FC01538D448D252F83
:1001700030E0842F90E0821B930B541710F0CF9641
:10018000089501970895FC01918D828D981761F073
:10019000828DDF01A80FB11D5D968C91928D9F5FBE
:1001A0009F73928F90E008958FEF9FEF0895FC0169
:1001B000918D828D981731F0828DE80FF11D858D1C
:1001C00090E008958FEF9FEF0895FC01918D228DAF
:1001D000892F90E0805C9F4F821B91098F73992734
:1001E000089589EB91E00E94E50021E0892B09F454
:1001F00020E0822F0895FC01848DDF01A80FB11D3E
:10020000A35ABF4F2C91848D90E001968F7399274C
:10021000848FA689B7892C93A089B1898C91806439
:100220008C93938D848D981306C00288F389E02DFA
:1002300080818F7D80830895EF92FF920F931F93AB
:10024000CF93DF93EC0181E0888F9B8D8C8D981389
:1002500005C0E889F989808185FD24C0F62E0B8DC3
:1002600010E00F5F1F4F0F731127E02E8C8DE812E7
:100270000CC00FB607FCFACFE889F989808185FFA9
:10028000F5CFCE010E94FB00F1CF8B8DFE01E80F70
:10029000F11DE35AFF4FF0820B8FEA89FB898081C1
:1002A000806207C0EE89FF896083E889F9898081CF
:1002B0008064808381E090E0DF91CF911F910F9166
:1002C000FF90EF900895CF93DF93EC01888D882302
:1002D000C9F0EA89FB89808185FD05C0A889B989B3
:1002E0008C9186FD0FC00FB607FCF5CF808185FF8E
:1002F000F2CFA889B9898C9185FFEDCFCE010E94FC
:10030000FB00E7CFDF91CF91089580E090E0892B4B
:1003100029F00E94F10081110C94000008950097CB
:1003200069F0FC0101900020E9F73197AF01481B0B
:10033000590BBC0189EB91E00C94850080E090E0C2
:100340000895EF92FF920F931F93CF93DF93CDB752
:10035000DEB7C059D1090FB6F894DEBF0FBECDBFCE
:10036000F82EE92E1F9282E08F9328E131E03F932F
:100370002F938E010F5F1F4F1F930F930E94100743
:10038000EF92FF921F930F9300581F4F1F930F93ED
:100390000E941007C8010E948F010FB6F894DEBFBB
:1003A0000FBECDBFC057DF4F0FB6F894DEBF0FBEF4
:1003B000CDBFDF91CF911F910F91FF90EF900895E6
:1003C0000E94FB06EF92FF920F931F93CF93DF9350
:1003D000EC017B018A0188819981009729F02A81AB
:1003E0003B8124173507F8F4B8016F5F7F4F0E94F7
:1003F0003106009759F0998388831B830A832C81E7
:100400003D81232B81F4FC0110820DC088819981EC
:10041000009711F00E949905198218821D821C8292
:100420001B821A8207C01D830C83B70188819981C2
:100430000E940907CE01DF91CF911F910F91FF908C
:10044000EF9008951F920F920FB60F9211242F93E1
:100450003F938F939F93AF93BF938091B1019091FE
:10046000B201A091B301B091B4013091B00123E089
:10047000230F2D3720F40196A11DB11D05C026E8DC
:10048000230F0296A11DB11D2093B0018093B101ED
:100490009093B201A093B301B093B4018091B501E0
:1004A0009091B601A091B701B091B8010196A11D3C
:1004B000B11D8093B5019093B601A093B701B0939D
:1004C000B801BF91AF919F918F913F912F910F9064
:1004D0000FBE0F901F9018951F920F920FB60F929C
:1004E00011242F933F934F935F936F937F938F9339
:1004F0009F93AF93BF93EF93FF9389EB91E00E949B
:10050000FB00FF91EF91BF91AF919F918F917F91F0
:100510006F915F914F913F912F910F900FBE0F9070
:100520001F9018951F920F920FB60F9211242F93C0
:100530008F939F93EF93FF93E091C901F091CA01CC
:100540008081E091CF01F091D00182FD12C09081B5
:100550008091D2018F5F8F732091D301821751F068
:10056000E091D201F0E0E754FE4F958F8093D201E5
:1005700001C08081FF91EF919F918F912F910F90FA
:100580000FBE0F901F901895E9EBF1E013821282D5
:1005900088EE93E0A0E0B0E084839583A683B783E0
:1005A0008AE091E09183808385EC90E09587848751
:1005B00084EC90E09787868780EC90E0918B808B2D
:1005C00081EC90E0938B828B82EC90E0958B848B16
:1005D00086EC90E0978B868B118E128E138E148E84
:1005E000ECE5F2E0118210821382128215821482ED
:1005F00045E050E06FE171E0CF010E94E201E6E5E5
:10060000F2E011821082138212821582148240E479
:1006100050E065E271E0CF010C94E201789484B57A
:10062000826084BD84B5816084BD85B5826085BDEE
:1006300085B5816085BD80916E00816080936E007C
:10064000109281008091810082608093810080916E
:10065000810081608093810080918000816080931F
:1006600080008091B10084608093B1008091B000DF
:1006700081608093B00080917A00846080937A00DA
:1006800080917A00826080937A0080917A00816004
:1006900080937A0080917A00806880937A0010922B
:1006A000C100E091C901F091CA0182E08083E0912C
:1006B000C501F091C6011082E091C701F091C80117
:1006C0008FEC80831092D101E091CD01F091CE01A9
:1006D00086E08083E091CB01F091CC018081806144
:1006E0008083E091CB01F091CC0180818860808390
:1006F000E091CB01F091CC01808180688083E09112
:10070000CB01F091CC0180818F7D808386E691E0E2
:100710000E948F0189E791E00E948F01C1E0DFE133
:100720008AE590E00E94A1018DE690E00E94A1017F
:1007300088E790E00E94A10188E690E00E94A10174
:100740008AE590E00E94A10183E390E00E94A1016C
:1007500084E790E00E94A10184E590E00E94A1015D
:1007600086E590E00E94A10184E490E00E94A1014E
:1007700086E490E00E94A1018DE490E00E94A10136
:1007800084E590E00E94A10186E490E00E94A1012E
:1007900089E390E00E94A10186E590E00E94A1011A
:1007A00085E590E00E94A1018AE790E00E94A10106
:1007B00086E490E00E94A1018FE490E00E94A101F4
:1007C0008EE490E00E94A1018CE690E00E94A101DD
:1007D00089E390E00E94A10184E590E00E94A101DC
:1007E00086E590E00E94A10184E490E00E94A101CE
:1007F00081E590E00E94A10183E390E00E94A101C5
:1008000083E590E00E94A10185E590E00E94A101AE
:100810008EE490E00E94A10186E690E00E94A10192
:1008200085E590E00E94A10184E490E00E94A1018E
:1008300081E590E00E94A10181E390E00E94A10186
:100840008EE490E00E94A10186E590E00E94A10163
:1008500084E690E00E94A10180E590E00E94A10161
:1008600085E590E00E94A1018BE690E00E94A10145
:1008700082E590E00E94A10184E590E00E94A10140
:1008800086E690E00E94A10181E590E00E94A1012E
:100890008DE390E00E94A1018DE390E00E94A10110
:1008A00089E791E00E948F010E9460004B015C018A
:1008B00088EEC82E83E0D82EE12CF12C0E94600037
:1008C000DC01CB0188199909AA09BB09883E93402C
:1008D000A105B10558F021E0C21AD108E108F108DC
:1008E00088EE880E83E0981EA11CB11CC114D104AF
:1008F000E104F10419F789EB91E00E94E5002091F1
:10090000AF011816190614F4222399F0222371F06E
:100910008CE791E00E948F018FE891E00E948F01A7
:1009200089E791E00E948F011092AF010E9485013A
:10093000F7CE89EB91E00E94C3008A3089F0909154
:100940008E01E92FF0E0E157FE4F808381E0890FAF
:10095000803218F480938E01CECFD0938E01CBCF0E
:10096000E0918E01F0E0E157FE4F108210928E016F
:10097000C093AF01C0CF80915602909157020E9460
:10098000990580915C0290915D020C9499052F92DB
:100990003F924F925F926F927F928F929F92AF920F
:1009A000BF92CF92DF92EF92FF920F931F93CF935C
:1009B000DF93CDB7DEB7CA1BDB0B0FB6F894DEBFF3
:1009C0000FBECDBF09942A88398848885F846E8419
:1009D0007D848C849B84AA84B984C884DF80EE8063
:1009E000FD800C811B81AA81B981CE0FD11D0FB66C
:1009F000F894DEBF0FBECDBFED010895EE0FFF1FCF
:100A00000590F491E02D0994CF93DF938230910506
:100A100010F482E090E0E0916402F091650220E041
:100A200030E0C0E0D0E0309711F1408151814817AB
:100A30005907C0F04817590761F4828193812097C4
:100A400019F09B838A832BC0909365028093640284
:100A500026C02115310519F04217530718F49A01E1
:100A6000BE01DF01EF010280F381E02DDCCF211513
:100A7000310509F1281B390B2430310590F4129609
:100A80008D919C9113976115710521F0FB01938362
:100A9000828304C09093650280936402FD013296C4
:100AA00044C0FD01E20FF31F81939193225031095D
:100AB0002D933C933AC02091620230916302232B24
:100AC00041F420910201309103013093630220939D
:100AD000620220910001309101012115310541F49C
:100AE0002DB73EB74091040150910501241B350BF1
:100AF000E0916202F0916302E217F307A0F42E1B6B
:100B00003F0B2817390778F0AC014E5F5F4F241771
:100B1000350748F04E0F5F1F509363024093620207
:100B20008193919302C0E0E0F0E0CF01DF91CF919B
:100B300008950F931F93CF93DF93009709F48CC010
:100B4000FC013297138212820091640210916502B7
:100B50000115110581F420813181820F931F2091AD
:100B60006202309163022817390779F5F093630226
:100B7000E093620271C0D80140E050E0AE17BF07B9
:100B800050F412962D913C911397AD01211531052A
:100B900009F1D901F3CF9D01DA013383228360810A
:100BA0007181860F971F8217930769F4EC012881E2
:100BB0003981260F371F2E5F3F4F318320838A8173
:100BC0009B8193838283452B29F4F0936502E09304
:100BD000640242C01396FC93EE931297ED01499183
:100BE00059919E01240F351FE217F30771F480819C
:100BF0009181840F951F029611969C938E9382810A
:100C0000938113969C938E931297E0E0F0E0D801C5
:100C100012968D919C911397009719F0F8018C0111
:100C2000F6CF8D919C9198012E5F3F4F820F931FBD
:100C300020916202309163022817390769F43097D6
:100C400029F4109265021092640202C0138212828B
:100C50001093630200936202DF91CF911F910F9175
:100C60000895A0E0B0E0E7E3F6E00C94CB04EC01DB
:100C7000009721F4CB010E940405B8C0FC01E60FE7
:100C8000F71F9C0122503109E217F30708F4ACC0AA
:100C9000D9010D911C91119706171707B0F0053077
:100CA000110508F49FC0C80104978617970708F438
:100CB00099C002501109061B170B019311936D93F4
:100CC0007C93CF010E9499058DC05B01A01AB10AE7
:100CD0004C01800E911EA0916402B091650240E02B
:100CE00050E0E12CF12C109709F44AC0A815B90581
:100CF000D1F56D907C901197630182E0C80ED11CF4
:100D0000CA14DB0480F1A3014A195B096A0182E07D
:100D1000C80ED11C1296BC9012971396AC91B5E0F8
:100D2000CB16D10440F0B282A38351834083D90112
:100D30006D937C930AC00E5F1F4FC301800F911FFC
:100D4000F90191838083EB2DFA2FE114F10431F046
:100D5000D7011396FC93EE93129744C0F09365026B
:100D6000E09364023FC08D919C91119748175907F9
:100D700008F4AC017D0112960D90BC91A02DB3CF6B
:100D8000809162029091630288159905E1F44617FB
:100D90005707C8F48091000190910101009741F438
:100DA0008DB79EB74091040150910501841B950BAE
:100DB000E817F907C8F4F0936302E0936202F901BF
:100DC000718360830FC0CB010E9404057C010097F2
:100DD00059F0A801BE010E940007CE010E949905AA
:100DE000C70104C0CE0102C080E090E0CDB7DEB7FD
:100DF000EEE00C94E70481E090E0F8940C94B109E3
:100E0000FB01DC0102C001900D9241505040D8F727
:100E10000895FB01DC0101900D920020E1F7089597
:100E2000AEE0B0E0E6E1F7E00C94D5040D891E8950
:100E300086E08C831A8309838FEF9FE79E838D83DF
:100E4000AE01475E5F4F6F89788DCE0101960E949B
:100E500033072F813885F801E20FF31F10822E9699
:100E6000E4E00C94F104ACE0B0E0E9E3F7E00C94CA
:100E7000C7047C016B018A01FC0117821682838101
:100E800081FFBDC1CE0101964C01F7019381F601AE
:100E900093FD859193FF81916F01882309F4ABC184
:100EA000853239F493FD859193FF81916F018532ED
:100EB00029F4B70190E00E941B09E7CF512C312C97
:100EC00020E02032A0F48B3269F030F4803259F007
:100ED000833269F420612CC08D3239F0803339F4CB
:100EE000216026C02260246023C0286021C027FD25
:100EF00027C030ED380F3A3078F426FF06C0FAE00C
:100F00005F9E300D1124532E13C08AE0389E300DA1
:100F10001124332E20620CC08E3221F426FD6BC1C9
:100F2000206406C08C3611F4206802C0883641F473
:100F3000F60193FD859193FF81916F018111C1CFDE
:100F4000982F9F7D9554933028F40C5F1F4FFFE33B
:100F5000F9830DC0833631F0833771F0833509F0A2
:100F60005BC022C0F801808189830E5F1F4F44243B
:100F70004394512C540115C03801F2E06F0E711CDE
:100F8000F801A080B18026FF03C0652D70E002C08B
:100F90006FEF7FEFC5012C870E9410092C018301A0
:100FA0002C852F77222E17C03801F2E06F0E711CAE
:100FB000F801A080B18026FF03C0652D70E002C05B
:100FC0006FEF7FEFC5012C870E9405092C012C854E
:100FD0002068222E830123FC1BC0832D90E048163D
:100FE0005906B0F4B70180E290E00E941B093A94E0
:100FF000F4CFF50127FC859127FE81915F01B701B0
:1010000090E00E941B0931103A94F1E04F1A510808
:101010004114510471F7E5C0843611F0893639F571
:10102000F80127FF07C060817181828193810C5F85
:101030001F4F08C060817181072E000C880B990B2F
:101040000E5F1F4F2F76722E97FF09C090958095E7
:10105000709561957F4F8F4F9F4F2068722E2AE0C9
:1010600030E0A4010E945309A82EA81844C0853777
:1010700029F42F7EB22E2AE030E025C0F22FF97F2E
:10108000BF2E8F36C1F018F4883579F0B4C08037A0
:1010900019F0883721F0AFC02F2F2061B22EB4FE97
:1010A0000DC08B2D8460B82E09C024FF0AC09F2F6D
:1010B0009660B92E06C028E030E005C020E130E09F
:1010C00002C020E132E0F801B7FE07C06081718103
:1010D000828193810C5F1F4F06C06081718180E027
:1010E00090E00E5F1F4FA4010E945309A82EA8187C
:1010F000FB2DFF777F2E76FE0BC0372D3E7FA5148C
:1011000050F474FE0AC072FC08C0372D3E7E05C044
:10111000BA2C372D03C0BA2C01C0B52C34FF0DC03A
:10112000FE01EA0DF11D8081803311F4397E09C082
:1011300032FF06C0B394B39404C0832F867809F0BD
:10114000B39433FD13C030FF06C05A2CB31418F407
:10115000530C5B18B32CB31468F4B70180E290E031
:101160003C870E941B09B3943C85F5CFB31410F45F
:101170003B1801C0312C34FF12C0B70180E390E06E
:101180003C870E941B093C8532FF17C031FD03C01C
:1011900088E790E002C088E590E0B7010CC0832F9B
:1011A000867859F031FF02C08BE201C080E237FD42
:1011B0008DE2B70190E00E941B09A51438F4B70135
:1011C00080E390E00E941B095A94F7CFAA94F4019F
:1011D000EA0DF11D8081B70190E00E941B09A1106A
:1011E000F5CF332009F451CEB70180E290E00E94A0
:1011F0001B093A94F6CFF7018681978102C08FEFE1
:101200009FEF2C96E2E10C94E304FC010590615001
:1012100070400110D8F7809590958E0F9F1F08950C
:10122000FC016150704001900110D8F780959095B5
:101230008E0F9F1F08950F931F93CF93DF93FB0192
:10124000238121FD03C08FEF9FEF28C022FF16C02E
:1012500046815781248135814217530744F4A08188
:10126000B1819D012F5F3F4F318320838C93268175
:1012700037812F5F3F4F3783268310C0EB01092F43
:10128000182F0084F185E02D0995892BE1F68E81D8
:101290009F8101969F838E83812F902FDF91CF9125
:1012A0001F910F910895FA01AA27283051F120319A
:1012B00081F1E8946F936E7F6E5F7F4F8F4F9F4FEA
:1012C000AF4FB1E03ED0B4E03CD0670F781F891F2C
:1012D0009A1FA11D680F791F8A1F911DA11D6A0FFA
:1012E000711D811D911DA11D20D009F468943F91AD
:1012F0002AE0269F11243019305D3193DEF6CF01AC
:101300000895462F4770405D4193B3E00FD0C9F771
:10131000F6CF462F4F70405D4A3318F0495D31FDDE
:101320004052419302D0A9F7EACFB4E0A695979531
:10133000879577956795BA95C9F700976105710507
:1013400008959B01AC010A2E069457954795379551
:101350002795BA95C9F7620F731F841F951FA01DAB
:10136000089510E0C5E3D0E004C0FE010E94FE0431
:0C1370002196C633D107C9F7F894FFCFCF
:10137C00000066028000000000001C018500B40023
:10138C006301E500C300D70025252E2564580061B4
:10139C00646D696E006447686C6332556759584ACE
:1013AC006C4947357664434230614755675932681A
:1013BC0068636D466A644756796379423562335582
:1013CC006759584A6C4947787662327470626D631B
:1013DC00675A6D3979003C41726475696E6F20698A
:1013EC00732072656164793E000D0A00546869735C
:0E13FC00206A75737420696E202E2E2E20003C
:00000001FF
